{
  "_format": "hh-sol-artifact-1",
  "contractName": "News",
  "sourceName": "contracts/News.sol",
  "abi": [
    {
      "inputs": [],
      "stateMutability": "nonpayable",
      "type": "constructor"
    },
    {
      "anonymous": false,
      "inputs": [
        {
          "indexed": false,
          "internalType": "uint256",
          "name": "id",
          "type": "uint256"
        },
        {
          "indexed": false,
          "internalType": "string",
          "name": "title",
          "type": "string"
        },
        {
          "indexed": false,
          "internalType": "string",
          "name": "description",
          "type": "string"
        },
        {
          "indexed": false,
          "internalType": "string",
          "name": "image",
          "type": "string"
        },
        {
          "indexed": false,
          "internalType": "string",
          "name": "date",
          "type": "string"
        },
        {
          "indexed": false,
          "internalType": "address",
          "name": "author",
          "type": "address"
        },
        {
          "indexed": false,
          "internalType": "bool",
          "name": "voted",
          "type": "bool"
        },
        {
          "indexed": false,
          "internalType": "int256",
          "name": "approved",
          "type": "int256"
        },
        {
          "indexed": false,
          "internalType": "int256",
          "name": "declined",
          "type": "int256"
        }
      ],
      "name": "NewCreated",
      "type": "event"
    },
    {
      "inputs": [
        {
          "internalType": "string",
          "name": "_title",
          "type": "string"
        },
        {
          "internalType": "string",
          "name": "_description",
          "type": "string"
        },
        {
          "internalType": "string",
          "name": "_image",
          "type": "string"
        },
        {
          "internalType": "string",
          "name": "_date",
          "type": "string"
        }
      ],
      "name": "createNew",
      "outputs": [],
      "stateMutability": "nonpayable",
      "type": "function"
    },
    {
      "inputs": [],
      "name": "getAllNews",
      "outputs": [
        {
          "components": [
            {
              "internalType": "uint256",
              "name": "id",
              "type": "uint256"
            },
            {
              "internalType": "string",
              "name": "title",
              "type": "string"
            },
            {
              "internalType": "string",
              "name": "description",
              "type": "string"
            },
            {
              "internalType": "string",
              "name": "image",
              "type": "string"
            },
            {
              "internalType": "string",
              "name": "date",
              "type": "string"
            },
            {
              "internalType": "address",
              "name": "author",
              "type": "address"
            },
            {
              "internalType": "bool",
              "name": "voted",
              "type": "bool"
            },
            {
              "internalType": "int256",
              "name": "approved",
              "type": "int256"
            },
            {
              "internalType": "int256",
              "name": "declined",
              "type": "int256"
            }
          ],
          "internalType": "struct News.New[]",
          "name": "",
          "type": "tuple[]"
        }
      ],
      "stateMutability": "view",
      "type": "function"
    },
    {
      "inputs": [
        {
          "internalType": "uint256",
          "name": "_id",
          "type": "uint256"
        }
      ],
      "name": "getNew",
      "outputs": [
        {
          "components": [
            {
              "internalType": "uint256",
              "name": "id",
              "type": "uint256"
            },
            {
              "internalType": "string",
              "name": "title",
              "type": "string"
            },
            {
              "internalType": "string",
              "name": "description",
              "type": "string"
            },
            {
              "internalType": "string",
              "name": "image",
              "type": "string"
            },
            {
              "internalType": "string",
              "name": "date",
              "type": "string"
            },
            {
              "internalType": "address",
              "name": "author",
              "type": "address"
            },
            {
              "internalType": "bool",
              "name": "voted",
              "type": "bool"
            },
            {
              "internalType": "int256",
              "name": "approved",
              "type": "int256"
            },
            {
              "internalType": "int256",
              "name": "declined",
              "type": "int256"
            }
          ],
          "internalType": "struct News.New",
          "name": "",
          "type": "tuple"
        }
      ],
      "stateMutability": "view",
      "type": "function"
    },
    {
      "inputs": [],
      "name": "getTotalNews",
      "outputs": [
        {
          "internalType": "uint256",
          "name": "",
          "type": "uint256"
        }
      ],
      "stateMutability": "view",
      "type": "function"
    }
  ],
  "bytecode": "0x60806040523480156200001157600080fd5b506200005d6040518060400160405280600d81526020017f4e657773206465706c6f796564000000000000000000000000000000000000008152506200006360201b620009b91760201c565b620001f7565b62000103816040516024016200007a919062000170565b6040516020818303038152906040527f41304fac000000000000000000000000000000000000000000000000000000007bffffffffffffffffffffffffffffffffffffffffffffffffffffffff19166020820180517bffffffffffffffffffffffffffffffffffffffffffffffffffffffff83818316178352505050506200010660201b60201c565b50565b60008151905060006a636f6e736f6c652e6c6f679050602083016000808483855afa5050505050565b60006200013c8262000194565b6200014881856200019f565b93506200015a818560208601620001b0565b6200016581620001e6565b840191505092915050565b600060208201905081810360008301526200018c81846200012f565b905092915050565b600081519050919050565b600082825260208201905092915050565b60005b83811015620001d0578082015181840152602081019050620001b3565b83811115620001e0576000848401525b50505050565b6000601f19601f8301169050919050565b61148d80620002076000396000f3fe608060405234801561001057600080fd5b506004361061004c5760003560e01c80633f1774fd14610051578063702b908f1461006d578063d204ff3e1461009d578063f584ecd1146100bb575b600080fd5b61006b60048036038101906100669190610c23565b6100d9565b005b61008760048036038101906100829190610ce6565b610333565b604051610094919061107a565b60405180910390f35b6100a5610679565b6040516100b2919061109c565b60405180910390f35b6100c3610682565b6040516100d09190611036565b60405180910390f35b60008451116100e757600080fd5b60008351116100f557600080fd5b600073ffffffffffffffffffffffffffffffffffffffff163373ffffffffffffffffffffffffffffffffffffffff16141561012f57600080fd5b60008081548092919061014190611359565b91905055506101506001610a52565b60026040518061012001604052806101686001610a68565b81526020018681526020018581526020018481526020018381526020013373ffffffffffffffffffffffffffffffffffffffff1681526020016000151581526020016000815260200160008152509080600181540180825580915050600190039060005260206000209060080201600090919091909150600082015181600001556020820151816001019080519060200190610205929190610a9f565b506040820151816002019080519060200190610222929190610a9f565b50606082015181600301908051906020019061023f929190610a9f565b50608082015181600401908051906020019061025c929190610a9f565b5060a08201518160050160006101000a81548173ffffffffffffffffffffffffffffffffffffffff021916908373ffffffffffffffffffffffffffffffffffffffff16021790555060c08201518160050160146101000a81548160ff02191690831515021790555060e08201518160060155610100820151816007015550507f2cb436e40b235c205d86469e12433374743135ddc4802150d1887108b6b04b4a6103066001610a68565b85858585336000806000604051610325999897969594939291906110b7565b60405180910390a150505050565b61033b610b25565b600260018361034a919061121c565b81548110610381577f4e487b7100000000000000000000000000000000000000000000000000000000600052603260045260246000fd5b906000526020600020906008020160405180610120016040529081600082015481526020016001820180546103b5906112f6565b80601f01602080910402602001604051908101604052809291908181526020018280546103e1906112f6565b801561042e5780601f106104035761010080835404028352916020019161042e565b820191906000526020600020905b81548152906001019060200180831161041157829003601f168201915b50505050508152602001600282018054610447906112f6565b80601f0160208091040260200160405190810160405280929190818152602001828054610473906112f6565b80156104c05780601f10610495576101008083540402835291602001916104c0565b820191906000526020600020905b8154815290600101906020018083116104a357829003601f168201915b505050505081526020016003820180546104d9906112f6565b80601f0160208091040260200160405190810160405280929190818152602001828054610505906112f6565b80156105525780601f1061052757610100808354040283529160200191610552565b820191906000526020600020905b81548152906001019060200180831161053557829003601f168201915b5050505050815260200160048201805461056b906112f6565b80601f0160208091040260200160405190810160405280929190818152602001828054610597906112f6565b80156105e45780601f106105b9576101008083540402835291602001916105e4565b820191906000526020600020905b8154815290600101906020018083116105c757829003601f168201915b505050505081526020016005820160009054906101000a900473ffffffffffffffffffffffffffffffffffffffff1673ffffffffffffffffffffffffffffffffffffffff1673ffffffffffffffffffffffffffffffffffffffff1681526020016005820160149054906101000a900460ff16151515158152602001600682015481526020016007820154815250509050919050565b60008054905090565b60606002805480602002602001604051908101604052809291908181526020016000905b828210156109b0578382906000526020600020906008020160405180610120016040529081600082015481526020016001820180546106e4906112f6565b80601f0160208091040260200160405190810160405280929190818152602001828054610710906112f6565b801561075d5780601f106107325761010080835404028352916020019161075d565b820191906000526020600020905b81548152906001019060200180831161074057829003601f168201915b50505050508152602001600282018054610776906112f6565b80601f01602080910402602001604051908101604052809291908181526020018280546107a2906112f6565b80156107ef5780601f106107c4576101008083540402835291602001916107ef565b820191906000526020600020905b8154815290600101906020018083116107d257829003601f168201915b50505050508152602001600382018054610808906112f6565b80601f0160208091040260200160405190810160405280929190818152602001828054610834906112f6565b80156108815780601f1061085657610100808354040283529160200191610881565b820191906000526020600020905b81548152906001019060200180831161086457829003601f168201915b5050505050815260200160048201805461089a906112f6565b80601f01602080910402602001604051908101604052809291908181526020018280546108c6906112f6565b80156109135780601f106108e857610100808354040283529160200191610913565b820191906000526020600020905b8154815290600101906020018083116108f657829003601f168201915b505050505081526020016005820160009054906101000a900473ffffffffffffffffffffffffffffffffffffffff1673ffffffffffffffffffffffffffffffffffffffff1673ffffffffffffffffffffffffffffffffffffffff1681526020016005820160149054906101000a900460ff1615151515815260200160068201548152602001600782015481525050815260200190600101906106a6565b50505050905090565b610a4f816040516024016109cd9190611058565b6040516020818303038152906040527f41304fac000000000000000000000000000000000000000000000000000000007bffffffffffffffffffffffffffffffffffffffffffffffffffffffff19166020820180517bffffffffffffffffffffffffffffffffffffffffffffffffffffffff8381831617835250505050610a76565b50565b6001816000016000828254019250508190555050565b600081600001549050919050565b60008151905060006a636f6e736f6c652e6c6f679050602083016000808483855afa5050505050565b828054610aab906112f6565b90600052602060002090601f016020900481019282610acd5760008555610b14565b82601f10610ae657805160ff1916838001178555610b14565b82800160010185558215610b14579182015b82811115610b13578251825591602001919060010190610af8565b5b509050610b219190610b89565b5090565b6040518061012001604052806000815260200160608152602001606081526020016060815260200160608152602001600073ffffffffffffffffffffffffffffffffffffffff16815260200160001515815260200160008152602001600081525090565b5b80821115610ba2576000816000905550600101610b8a565b5090565b6000610bb9610bb484611185565b611160565b905082815260208101848484011115610bd157600080fd5b610bdc8482856112b4565b509392505050565b600082601f830112610bf557600080fd5b8135610c05848260208601610ba6565b91505092915050565b600081359050610c1d81611440565b92915050565b60008060008060808587031215610c3957600080fd5b600085013567ffffffffffffffff811115610c5357600080fd5b610c5f87828801610be4565b945050602085013567ffffffffffffffff811115610c7c57600080fd5b610c8887828801610be4565b935050604085013567ffffffffffffffff811115610ca557600080fd5b610cb187828801610be4565b925050606085013567ffffffffffffffff811115610cce57600080fd5b610cda87828801610be4565b91505092959194509250565b600060208284031215610cf857600080fd5b6000610d0684828501610c0e565b91505092915050565b6000610d1b8383610e64565b905092915050565b610d2c81611250565b82525050565b610d3b81611250565b82525050565b6000610d4c826111c6565b610d5681856111e9565b935083602082028501610d68856111b6565b8060005b85811015610da45784840389528151610d858582610d0f565b9450610d90836111dc565b925060208a01995050600181019050610d6c565b50829750879550505050505092915050565b610dbf81611262565b82525050565b610dce81611262565b82525050565b610ddd8161126e565b82525050565b610dec816112a2565b82525050565b6000610dfd826111d1565b610e0781856111fa565b9350610e178185602086016112c3565b610e208161142f565b840191505092915050565b6000610e36826111d1565b610e40818561120b565b9350610e508185602086016112c3565b610e598161142f565b840191505092915050565b600061012083016000830151610e7d6000860182611018565b5060208301518482036020860152610e958282610df2565b91505060408301518482036040860152610eaf8282610df2565b91505060608301518482036060860152610ec98282610df2565b91505060808301518482036080860152610ee38282610df2565b91505060a0830151610ef860a0860182610d23565b5060c0830151610f0b60c0860182610db6565b5060e0830151610f1e60e0860182610dd4565b50610100830151610f33610100860182610dd4565b508091505092915050565b600061012083016000830151610f576000860182611018565b5060208301518482036020860152610f6f8282610df2565b91505060408301518482036040860152610f898282610df2565b91505060608301518482036060860152610fa38282610df2565b91505060808301518482036080860152610fbd8282610df2565b91505060a0830151610fd260a0860182610d23565b5060c0830151610fe560c0860182610db6565b5060e0830151610ff860e0860182610dd4565b5061010083015161100d610100860182610dd4565b508091505092915050565b61102181611298565b82525050565b61103081611298565b82525050565b600060208201905081810360008301526110508184610d41565b905092915050565b600060208201905081810360008301526110728184610e2b565b905092915050565b600060208201905081810360008301526110948184610f3e565b905092915050565b60006020820190506110b16000830184611027565b92915050565b6000610120820190506110cd600083018c611027565b81810360208301526110df818b610e2b565b905081810360408301526110f3818a610e2b565b905081810360608301526111078189610e2b565b9050818103608083015261111b8188610e2b565b905061112a60a0830187610d32565b61113760c0830186610dc5565b61114460e0830185610de3565b611152610100830184610de3565b9a9950505050505050505050565b600061116a61117b565b90506111768282611328565b919050565b6000604051905090565b600067ffffffffffffffff8211156111a05761119f611400565b5b6111a98261142f565b9050602081019050919050565b6000819050602082019050919050565b600081519050919050565b600081519050919050565b6000602082019050919050565b600082825260208201905092915050565b600082825260208201905092915050565b600082825260208201905092915050565b600061122782611298565b915061123283611298565b925082821015611245576112446113a2565b5b828203905092915050565b600061125b82611278565b9050919050565b60008115159050919050565b6000819050919050565b600073ffffffffffffffffffffffffffffffffffffffff82169050919050565b6000819050919050565b60006112ad8261126e565b9050919050565b82818337600083830152505050565b60005b838110156112e15780820151818401526020810190506112c6565b838111156112f0576000848401525b50505050565b6000600282049050600182168061130e57607f821691505b60208210811415611322576113216113d1565b5b50919050565b6113318261142f565b810181811067ffffffffffffffff821117156113505761134f611400565b5b80604052505050565b600061136482611298565b91507fffffffffffffffffffffffffffffffffffffffffffffffffffffffffffffffff821415611397576113966113a2565b5b600182019050919050565b7f4e487b7100000000000000000000000000000000000000000000000000000000600052601160045260246000fd5b7f4e487b7100000000000000000000000000000000000000000000000000000000600052602260045260246000fd5b7f4e487b7100000000000000000000000000000000000000000000000000000000600052604160045260246000fd5b6000601f19601f8301169050919050565b61144981611298565b811461145457600080fd5b5056fea264697066735822122036c714295af656501ea4aa1c9105daede77ee87768a2590ae7feaeee2c54503164736f6c63430008040033",
  "linkReferences": {},
  "deployedLinkReferences": {}
}