{
  "_format": "hh-sol-artifact-1",
  "contractName": "News",
  "sourceName": "contracts/News.sol",
  "abi": [
    {
      "inputs": [],
      "stateMutability": "nonpayable",
      "type": "constructor"
    },
    {
      "anonymous": false,
      "inputs": [
        {
          "indexed": false,
          "internalType": "uint256",
          "name": "id",
          "type": "uint256"
        },
        {
          "indexed": false,
          "internalType": "string",
          "name": "title",
          "type": "string"
        },
        {
          "indexed": false,
          "internalType": "string",
          "name": "description",
          "type": "string"
        },
        {
          "indexed": false,
          "internalType": "string",
          "name": "coverImageHash",
          "type": "string"
        },
        {
          "indexed": false,
          "internalType": "string",
          "name": "date",
          "type": "string"
        },
        {
          "indexed": false,
          "internalType": "address",
          "name": "author",
          "type": "address"
        },
        {
          "indexed": false,
          "internalType": "bool",
          "name": "voted",
          "type": "bool"
        },
        {
          "indexed": false,
          "internalType": "int256",
          "name": "approved",
          "type": "int256"
        },
        {
          "indexed": false,
          "internalType": "int256",
          "name": "declined",
          "type": "int256"
        }
      ],
      "name": "NewCreated",
      "type": "event"
    },
    {
      "inputs": [
        {
          "internalType": "string",
          "name": "_title",
          "type": "string"
        },
        {
          "internalType": "string",
          "name": "_description",
          "type": "string"
        },
        {
          "internalType": "string",
          "name": "_coverImageHash",
          "type": "string"
        },
        {
          "internalType": "string",
          "name": "_date",
          "type": "string"
        }
      ],
      "name": "createNew",
      "outputs": [],
      "stateMutability": "nonpayable",
      "type": "function"
    },
    {
      "inputs": [],
      "name": "getAllNews",
      "outputs": [
        {
          "components": [
            {
              "internalType": "uint256",
              "name": "id",
              "type": "uint256"
            },
            {
              "internalType": "string",
              "name": "title",
              "type": "string"
            },
            {
              "internalType": "string",
              "name": "description",
              "type": "string"
            },
            {
              "internalType": "string",
              "name": "coverImageHash",
              "type": "string"
            },
            {
              "internalType": "string",
              "name": "date",
              "type": "string"
            },
            {
              "internalType": "address",
              "name": "author",
              "type": "address"
            },
            {
              "internalType": "bool",
              "name": "voted",
              "type": "bool"
            },
            {
              "internalType": "int256",
              "name": "approved",
              "type": "int256"
            },
            {
              "internalType": "int256",
              "name": "declined",
              "type": "int256"
            }
          ],
          "internalType": "struct News.New[]",
          "name": "",
          "type": "tuple[]"
        }
      ],
      "stateMutability": "view",
      "type": "function"
    },
    {
      "inputs": [
        {
          "internalType": "uint256",
          "name": "_id",
          "type": "uint256"
        }
      ],
      "name": "getNew",
      "outputs": [
        {
          "components": [
            {
              "internalType": "uint256",
              "name": "id",
              "type": "uint256"
            },
            {
              "internalType": "string",
              "name": "title",
              "type": "string"
            },
            {
              "internalType": "string",
              "name": "description",
              "type": "string"
            },
            {
              "internalType": "string",
              "name": "coverImageHash",
              "type": "string"
            },
            {
              "internalType": "string",
              "name": "date",
              "type": "string"
            },
            {
              "internalType": "address",
              "name": "author",
              "type": "address"
            },
            {
              "internalType": "bool",
              "name": "voted",
              "type": "bool"
            },
            {
              "internalType": "int256",
              "name": "approved",
              "type": "int256"
            },
            {
              "internalType": "int256",
              "name": "declined",
              "type": "int256"
            }
          ],
          "internalType": "struct News.New",
          "name": "",
          "type": "tuple"
        }
      ],
      "stateMutability": "view",
      "type": "function"
    },
    {
      "inputs": [],
      "name": "getTotalNews",
      "outputs": [
        {
          "internalType": "uint256",
          "name": "",
          "type": "uint256"
        }
      ],
      "stateMutability": "view",
      "type": "function"
    }
  ],
  "bytecode": "0x60806040523480156200001157600080fd5b506200005d6040518060400160405280600d81526020017f4e657773206465706c6f796564000000000000000000000000000000000000008152506200006360201b620009bb1760201c565b620001f7565b62000103816040516024016200007a919062000170565b6040516020818303038152906040527f41304fac000000000000000000000000000000000000000000000000000000007bffffffffffffffffffffffffffffffffffffffffffffffffffffffff19166020820180517bffffffffffffffffffffffffffffffffffffffffffffffffffffffff83818316178352505050506200010660201b60201c565b50565b60008151905060006a636f6e736f6c652e6c6f679050602083016000808483855afa5050505050565b60006200013c8262000194565b6200014881856200019f565b93506200015a818560208601620001b0565b6200016581620001e6565b840191505092915050565b600060208201905081810360008301526200018c81846200012f565b905092915050565b600081519050919050565b600082825260208201905092915050565b60005b83811015620001d0578082015181840152602081019050620001b3565b83811115620001e0576000848401525b50505050565b6000601f19601f8301169050919050565b61145b80620002076000396000f3fe608060405234801561001057600080fd5b506004361061004c5760003560e01c80633f1774fd14610051578063702b908f1461006d578063d204ff3e1461009d578063f584ecd1146100bb575b600080fd5b61006b60048036038101906100669190610c25565b6100d9565b005b61008760048036038101906100829190610ce8565b610341565b604051610094919061107c565b60405180910390f35b6100a561067b565b6040516100b2919061109e565b60405180910390f35b6100c3610684565b6040516100d09190611038565b60405180910390f35b60008251116100e757600080fd5b60008451116100f557600080fd5b600083511161010357600080fd5b600073ffffffffffffffffffffffffffffffffffffffff163373ffffffffffffffffffffffffffffffffffffffff16141561013d57600080fd5b60008081548092919061014f90611327565b919050555061015e6001610a54565b60026040518061012001604052806101766001610a6a565b81526020018681526020018581526020018481526020018381526020013373ffffffffffffffffffffffffffffffffffffffff1681526020016000151581526020016000815260200160008152509080600181540180825580915050600190039060005260206000209060080201600090919091909150600082015181600001556020820151816001019080519060200190610213929190610aa1565b506040820151816002019080519060200190610230929190610aa1565b50606082015181600301908051906020019061024d929190610aa1565b50608082015181600401908051906020019061026a929190610aa1565b5060a08201518160050160006101000a81548173ffffffffffffffffffffffffffffffffffffffff021916908373ffffffffffffffffffffffffffffffffffffffff16021790555060c08201518160050160146101000a81548160ff02191690831515021790555060e08201518160060155610100820151816007015550507f2cb436e40b235c205d86469e12433374743135ddc4802150d1887108b6b04b4a6103146001610a6a565b85858585336000806000604051610333999897969594939291906110b9565b60405180910390a150505050565b610349610b27565b60028281548110610383577f4e487b7100000000000000000000000000000000000000000000000000000000600052603260045260246000fd5b906000526020600020906008020160405180610120016040529081600082015481526020016001820180546103b7906112c4565b80601f01602080910402602001604051908101604052809291908181526020018280546103e3906112c4565b80156104305780601f1061040557610100808354040283529160200191610430565b820191906000526020600020905b81548152906001019060200180831161041357829003601f168201915b50505050508152602001600282018054610449906112c4565b80601f0160208091040260200160405190810160405280929190818152602001828054610475906112c4565b80156104c25780601f10610497576101008083540402835291602001916104c2565b820191906000526020600020905b8154815290600101906020018083116104a557829003601f168201915b505050505081526020016003820180546104db906112c4565b80601f0160208091040260200160405190810160405280929190818152602001828054610507906112c4565b80156105545780601f1061052957610100808354040283529160200191610554565b820191906000526020600020905b81548152906001019060200180831161053757829003601f168201915b5050505050815260200160048201805461056d906112c4565b80601f0160208091040260200160405190810160405280929190818152602001828054610599906112c4565b80156105e65780601f106105bb576101008083540402835291602001916105e6565b820191906000526020600020905b8154815290600101906020018083116105c957829003601f168201915b505050505081526020016005820160009054906101000a900473ffffffffffffffffffffffffffffffffffffffff1673ffffffffffffffffffffffffffffffffffffffff1673ffffffffffffffffffffffffffffffffffffffff1681526020016005820160149054906101000a900460ff16151515158152602001600682015481526020016007820154815250509050919050565b60008054905090565b60606002805480602002602001604051908101604052809291908181526020016000905b828210156109b2578382906000526020600020906008020160405180610120016040529081600082015481526020016001820180546106e6906112c4565b80601f0160208091040260200160405190810160405280929190818152602001828054610712906112c4565b801561075f5780601f106107345761010080835404028352916020019161075f565b820191906000526020600020905b81548152906001019060200180831161074257829003601f168201915b50505050508152602001600282018054610778906112c4565b80601f01602080910402602001604051908101604052809291908181526020018280546107a4906112c4565b80156107f15780601f106107c6576101008083540402835291602001916107f1565b820191906000526020600020905b8154815290600101906020018083116107d457829003601f168201915b5050505050815260200160038201805461080a906112c4565b80601f0160208091040260200160405190810160405280929190818152602001828054610836906112c4565b80156108835780601f1061085857610100808354040283529160200191610883565b820191906000526020600020905b81548152906001019060200180831161086657829003601f168201915b5050505050815260200160048201805461089c906112c4565b80601f01602080910402602001604051908101604052809291908181526020018280546108c8906112c4565b80156109155780601f106108ea57610100808354040283529160200191610915565b820191906000526020600020905b8154815290600101906020018083116108f857829003601f168201915b505050505081526020016005820160009054906101000a900473ffffffffffffffffffffffffffffffffffffffff1673ffffffffffffffffffffffffffffffffffffffff1673ffffffffffffffffffffffffffffffffffffffff1681526020016005820160149054906101000a900460ff1615151515815260200160068201548152602001600782015481525050815260200190600101906106a8565b50505050905090565b610a51816040516024016109cf919061105a565b6040516020818303038152906040527f41304fac000000000000000000000000000000000000000000000000000000007bffffffffffffffffffffffffffffffffffffffffffffffffffffffff19166020820180517bffffffffffffffffffffffffffffffffffffffffffffffffffffffff8381831617835250505050610a78565b50565b6001816000016000828254019250508190555050565b600081600001549050919050565b60008151905060006a636f6e736f6c652e6c6f679050602083016000808483855afa5050505050565b828054610aad906112c4565b90600052602060002090601f016020900481019282610acf5760008555610b16565b82601f10610ae857805160ff1916838001178555610b16565b82800160010185558215610b16579182015b82811115610b15578251825591602001919060010190610afa565b5b509050610b239190610b8b565b5090565b6040518061012001604052806000815260200160608152602001606081526020016060815260200160608152602001600073ffffffffffffffffffffffffffffffffffffffff16815260200160001515815260200160008152602001600081525090565b5b80821115610ba4576000816000905550600101610b8c565b5090565b6000610bbb610bb684611187565b611162565b905082815260208101848484011115610bd357600080fd5b610bde848285611282565b509392505050565b600082601f830112610bf757600080fd5b8135610c07848260208601610ba8565b91505092915050565b600081359050610c1f8161140e565b92915050565b60008060008060808587031215610c3b57600080fd5b600085013567ffffffffffffffff811115610c5557600080fd5b610c6187828801610be6565b945050602085013567ffffffffffffffff811115610c7e57600080fd5b610c8a87828801610be6565b935050604085013567ffffffffffffffff811115610ca757600080fd5b610cb387828801610be6565b925050606085013567ffffffffffffffff811115610cd057600080fd5b610cdc87828801610be6565b91505092959194509250565b600060208284031215610cfa57600080fd5b6000610d0884828501610c10565b91505092915050565b6000610d1d8383610e66565b905092915050565b610d2e8161121e565b82525050565b610d3d8161121e565b82525050565b6000610d4e826111c8565b610d5881856111eb565b935083602082028501610d6a856111b8565b8060005b85811015610da65784840389528151610d878582610d11565b9450610d92836111de565b925060208a01995050600181019050610d6e565b50829750879550505050505092915050565b610dc181611230565b82525050565b610dd081611230565b82525050565b610ddf8161123c565b82525050565b610dee81611270565b82525050565b6000610dff826111d3565b610e0981856111fc565b9350610e19818560208601611291565b610e22816113fd565b840191505092915050565b6000610e38826111d3565b610e42818561120d565b9350610e52818560208601611291565b610e5b816113fd565b840191505092915050565b600061012083016000830151610e7f600086018261101a565b5060208301518482036020860152610e978282610df4565b91505060408301518482036040860152610eb18282610df4565b91505060608301518482036060860152610ecb8282610df4565b91505060808301518482036080860152610ee58282610df4565b91505060a0830151610efa60a0860182610d25565b5060c0830151610f0d60c0860182610db8565b5060e0830151610f2060e0860182610dd6565b50610100830151610f35610100860182610dd6565b508091505092915050565b600061012083016000830151610f59600086018261101a565b5060208301518482036020860152610f718282610df4565b91505060408301518482036040860152610f8b8282610df4565b91505060608301518482036060860152610fa58282610df4565b91505060808301518482036080860152610fbf8282610df4565b91505060a0830151610fd460a0860182610d25565b5060c0830151610fe760c0860182610db8565b5060e0830151610ffa60e0860182610dd6565b5061010083015161100f610100860182610dd6565b508091505092915050565b61102381611266565b82525050565b61103281611266565b82525050565b600060208201905081810360008301526110528184610d43565b905092915050565b600060208201905081810360008301526110748184610e2d565b905092915050565b600060208201905081810360008301526110968184610f40565b905092915050565b60006020820190506110b36000830184611029565b92915050565b6000610120820190506110cf600083018c611029565b81810360208301526110e1818b610e2d565b905081810360408301526110f5818a610e2d565b905081810360608301526111098189610e2d565b9050818103608083015261111d8188610e2d565b905061112c60a0830187610d34565b61113960c0830186610dc7565b61114660e0830185610de5565b611154610100830184610de5565b9a9950505050505050505050565b600061116c61117d565b905061117882826112f6565b919050565b6000604051905090565b600067ffffffffffffffff8211156111a2576111a16113ce565b5b6111ab826113fd565b9050602081019050919050565b6000819050602082019050919050565b600081519050919050565b600081519050919050565b6000602082019050919050565b600082825260208201905092915050565b600082825260208201905092915050565b600082825260208201905092915050565b600061122982611246565b9050919050565b60008115159050919050565b6000819050919050565b600073ffffffffffffffffffffffffffffffffffffffff82169050919050565b6000819050919050565b600061127b8261123c565b9050919050565b82818337600083830152505050565b60005b838110156112af578082015181840152602081019050611294565b838111156112be576000848401525b50505050565b600060028204905060018216806112dc57607f821691505b602082108114156112f0576112ef61139f565b5b50919050565b6112ff826113fd565b810181811067ffffffffffffffff8211171561131e5761131d6113ce565b5b80604052505050565b600061133282611266565b91507fffffffffffffffffffffffffffffffffffffffffffffffffffffffffffffffff82141561136557611364611370565b5b600182019050919050565b7f4e487b7100000000000000000000000000000000000000000000000000000000600052601160045260246000fd5b7f4e487b7100000000000000000000000000000000000000000000000000000000600052602260045260246000fd5b7f4e487b7100000000000000000000000000000000000000000000000000000000600052604160045260246000fd5b6000601f19601f8301169050919050565b61141781611266565b811461142257600080fd5b5056fea264697066735822122088cdbe41b4c53f887ae15c7394b78c2bf3bd59f09bee4a68d4a92c683881d8c364736f6c63430008040033",
  "linkReferences": {},
  "deployedLinkReferences": {}
}