{
  "_format": "hh-sol-artifact-1",
  "contractName": "News",
  "sourceName": "contracts/News.sol",
  "abi": [
    {
      "inputs": [],
      "stateMutability": "nonpayable",
      "type": "constructor"
    },
    {
      "anonymous": false,
      "inputs": [
        {
          "indexed": false,
          "internalType": "uint256",
          "name": "id",
          "type": "uint256"
        },
        {
          "indexed": false,
          "internalType": "string",
          "name": "title",
          "type": "string"
        },
        {
          "indexed": false,
          "internalType": "string",
          "name": "description",
          "type": "string"
        },
        {
          "indexed": false,
          "internalType": "string",
          "name": "image",
          "type": "string"
        },
        {
          "indexed": false,
          "internalType": "string",
          "name": "date",
          "type": "string"
        },
        {
          "indexed": false,
          "internalType": "address",
          "name": "author",
          "type": "address"
        },
        {
          "indexed": false,
          "internalType": "bool",
          "name": "voted",
          "type": "bool"
        },
        {
          "indexed": false,
          "internalType": "int256",
          "name": "approved",
          "type": "int256"
        },
        {
          "indexed": false,
          "internalType": "int256",
          "name": "declined",
          "type": "int256"
        },
        {
          "indexed": false,
          "internalType": "address[]",
          "name": "voters",
          "type": "address[]"
        }
      ],
      "name": "NewCreated",
      "type": "event"
    },
    {
      "inputs": [
        {
          "internalType": "string",
          "name": "_title",
          "type": "string"
        },
        {
          "internalType": "string",
          "name": "_description",
          "type": "string"
        },
        {
          "internalType": "string",
          "name": "_image",
          "type": "string"
        },
        {
          "internalType": "string",
          "name": "_date",
          "type": "string"
        }
      ],
      "name": "createNew",
      "outputs": [],
      "stateMutability": "nonpayable",
      "type": "function"
    },
    {
      "inputs": [],
      "name": "getAllNews",
      "outputs": [
        {
          "components": [
            {
              "internalType": "uint256",
              "name": "id",
              "type": "uint256"
            },
            {
              "internalType": "string",
              "name": "title",
              "type": "string"
            },
            {
              "internalType": "string",
              "name": "description",
              "type": "string"
            },
            {
              "internalType": "string",
              "name": "image",
              "type": "string"
            },
            {
              "internalType": "string",
              "name": "date",
              "type": "string"
            },
            {
              "internalType": "address",
              "name": "author",
              "type": "address"
            },
            {
              "internalType": "bool",
              "name": "voted",
              "type": "bool"
            },
            {
              "internalType": "int256",
              "name": "approved",
              "type": "int256"
            },
            {
              "internalType": "int256",
              "name": "declined",
              "type": "int256"
            },
            {
              "internalType": "address[]",
              "name": "voters",
              "type": "address[]"
            }
          ],
          "internalType": "struct News.New[]",
          "name": "",
          "type": "tuple[]"
        }
      ],
      "stateMutability": "view",
      "type": "function"
    },
    {
      "inputs": [
        {
          "internalType": "uint256",
          "name": "_id",
          "type": "uint256"
        }
      ],
      "name": "getNew",
      "outputs": [
        {
          "components": [
            {
              "internalType": "uint256",
              "name": "id",
              "type": "uint256"
            },
            {
              "internalType": "string",
              "name": "title",
              "type": "string"
            },
            {
              "internalType": "string",
              "name": "description",
              "type": "string"
            },
            {
              "internalType": "string",
              "name": "image",
              "type": "string"
            },
            {
              "internalType": "string",
              "name": "date",
              "type": "string"
            },
            {
              "internalType": "address",
              "name": "author",
              "type": "address"
            },
            {
              "internalType": "bool",
              "name": "voted",
              "type": "bool"
            },
            {
              "internalType": "int256",
              "name": "approved",
              "type": "int256"
            },
            {
              "internalType": "int256",
              "name": "declined",
              "type": "int256"
            },
            {
              "internalType": "address[]",
              "name": "voters",
              "type": "address[]"
            }
          ],
          "internalType": "struct News.New",
          "name": "",
          "type": "tuple"
        }
      ],
      "stateMutability": "view",
      "type": "function"
    },
    {
      "inputs": [],
      "name": "getTotalNews",
      "outputs": [
        {
          "internalType": "uint256",
          "name": "",
          "type": "uint256"
        }
      ],
      "stateMutability": "view",
      "type": "function"
    },
    {
      "inputs": [
        {
          "internalType": "uint256",
          "name": "_id",
          "type": "uint256"
        },
        {
          "internalType": "string",
          "name": "_vote",
          "type": "string"
        }
      ],
      "name": "vote",
      "outputs": [],
      "stateMutability": "nonpayable",
      "type": "function"
    }
  ],
  "bytecode": "0x60806040523480156200001157600080fd5b506200005d6040518060400160405280600d81526020017f4e657773206465706c6f796564000000000000000000000000000000000000008152506200006360201b620010a21760201c565b620001f7565b62000103816040516024016200007a919062000170565b6040516020818303038152906040527f41304fac000000000000000000000000000000000000000000000000000000007bffffffffffffffffffffffffffffffffffffffffffffffffffffffff19166020820180517bffffffffffffffffffffffffffffffffffffffffffffffffffffffff83818316178352505050506200010660201b60201c565b50565b60008151905060006a636f6e736f6c652e6c6f679050602083016000808483855afa5050505050565b60006200013c8262000194565b6200014881856200019f565b93506200015a818560208601620001b0565b6200016581620001e6565b840191505092915050565b600060208201905081810360008301526200018c81846200012f565b905092915050565b600081519050919050565b600082825260208201905092915050565b60005b83811015620001d0578082015181840152602081019050620001b3565b83811115620001e0576000848401525b50505050565b6000601f19601f8301169050919050565b611e5b80620002076000396000f3fe608060405234801561001057600080fd5b50600436106100575760003560e01c8063241084751461005c5780633f1774fd14610078578063702b908f14610094578063d204ff3e146100c4578063f584ecd1146100e2575b600080fd5b61007660048036038101906100719190611489565b610100565b005b610092600480360381019061008d919061139d565b610595565b005b6100ae60048036038101906100a99190611460565b610900565b6040516100bb9190611954565b60405180910390f35b6100cc610cd4565b6040516100d99190611976565b60405180910390f35b6100ea610cdd565b6040516100f79190611910565b60405180910390f35b6000151560026001846101139190611bea565b8154811061014a577f4e487b7100000000000000000000000000000000000000000000000000000000600052603260045260246000fd5b906000526020600020906009020160050160149054906101000a900460ff1615151461017557600080fd5b6040518060400160405280600881526020017f417070726f76656400000000000000000000000000000000000000000000000081525080519060200120818051906020012014156102ec57600160026001846101d19190611bea565b81548110610208577f4e487b7100000000000000000000000000000000000000000000000000000000600052603260045260246000fd5b906000526020600020906009020160060160008282546102289190611b56565b92505081905550600260018361023e9190611bea565b81548110610275577f4e487b7100000000000000000000000000000000000000000000000000000000600052603260045260246000fd5b9060005260206000209060090201600801339080600181540180825580915050600190039060005260206000200160009091909190916101000a81548173ffffffffffffffffffffffffffffffffffffffff021916908373ffffffffffffffffffffffffffffffffffffffff160217905550610460565b6040518060400160405280600881526020017f4465636c696e6564000000000000000000000000000000000000000000000000815250805190602001208180519060200120141561045f57600160026001846103489190611bea565b8154811061037f577f4e487b7100000000000000000000000000000000000000000000000000000000600052603260045260246000fd5b9060005260206000209060090201600701600082825461039f9190611b56565b9250508190555060026001836103b59190611bea565b815481106103ec577f4e487b7100000000000000000000000000000000000000000000000000000000600052603260045260246000fd5b9060005260206000209060090201600801339080600181540180825580915050600190039060005260206000200160009091909190916101000a81548173ffffffffffffffffffffffffffffffffffffffff021916908373ffffffffffffffffffffffffffffffffffffffff1602179055505b5b6002806001846104709190611bea565b815481106104a7577f4e487b7100000000000000000000000000000000000000000000000000000000600052603260045260246000fd5b906000526020600020906009020160060154148061051b57506002806001846104d09190611bea565b81548110610507577f4e487b7100000000000000000000000000000000000000000000000000000000600052603260045260246000fd5b906000526020600020906009020160070154145b1561059157600160026001846105319190611bea565b81548110610568577f4e487b7100000000000000000000000000000000000000000000000000000000600052603260045260246000fd5b906000526020600020906009020160050160146101000a81548160ff0219169083151502179055505b5050565b60008451116105a357600080fd5b60008351116105b157600080fd5b60008251116105bf57600080fd5b600073ffffffffffffffffffffffffffffffffffffffff163373ffffffffffffffffffffffffffffffffffffffff1614156105f957600080fd5b60008081548092919061060b90611d27565b919050555061061a600161113b565b60026040518061014001604052806106326001611151565b81526020018681526020018581526020018481526020018381526020013373ffffffffffffffffffffffffffffffffffffffff1681526020016000151581526020016000815260200160008152602001600067ffffffffffffffff8111156106c3577f4e487b7100000000000000000000000000000000000000000000000000000000600052604160045260246000fd5b6040519080825280602002602001820160405280156106f15781602001602082028036833780820191505090505b508152509080600181540180825580915050600190039060005260206000209060090201600090919091909150600082015181600001556020820151816001019080519060200190610744929190611188565b506040820151816002019080519060200190610761929190611188565b50606082015181600301908051906020019061077e929190611188565b50608082015181600401908051906020019061079b929190611188565b5060a08201518160050160006101000a81548173ffffffffffffffffffffffffffffffffffffffff021916908373ffffffffffffffffffffffffffffffffffffffff16021790555060c08201518160050160146101000a81548160ff02191690831515021790555060e08201518160060155610100820151816007015561012082015181600801908051906020019061083592919061120e565b5050507fca3bf00997835d6963547fde4cf560fc421ab80738439f7f966ddc3802c01e386108636001611151565b858585853360008060008067ffffffffffffffff8111156108ad577f4e487b7100000000000000000000000000000000000000000000000000000000600052604160045260246000fd5b6040519080825280602002602001820160405280156108db5781602001602082028036833780820191505090505b506040516108f29a99989796959493929190611991565b60405180910390a150505050565b610908611298565b60026001836109179190611bea565b8154811061094e577f4e487b7100000000000000000000000000000000000000000000000000000000600052603260045260246000fd5b9060005260206000209060090201604051806101400160405290816000820154815260200160018201805461098290611cc4565b80601f01602080910402602001604051908101604052809291908181526020018280546109ae90611cc4565b80156109fb5780601f106109d0576101008083540402835291602001916109fb565b820191906000526020600020905b8154815290600101906020018083116109de57829003601f168201915b50505050508152602001600282018054610a1490611cc4565b80601f0160208091040260200160405190810160405280929190818152602001828054610a4090611cc4565b8015610a8d5780601f10610a6257610100808354040283529160200191610a8d565b820191906000526020600020905b815481529060010190602001808311610a7057829003601f168201915b50505050508152602001600382018054610aa690611cc4565b80601f0160208091040260200160405190810160405280929190818152602001828054610ad290611cc4565b8015610b1f5780601f10610af457610100808354040283529160200191610b1f565b820191906000526020600020905b815481529060010190602001808311610b0257829003601f168201915b50505050508152602001600482018054610b3890611cc4565b80601f0160208091040260200160405190810160405280929190818152602001828054610b6490611cc4565b8015610bb15780601f10610b8657610100808354040283529160200191610bb1565b820191906000526020600020905b815481529060010190602001808311610b9457829003601f168201915b505050505081526020016005820160009054906101000a900473ffffffffffffffffffffffffffffffffffffffff1673ffffffffffffffffffffffffffffffffffffffff1673ffffffffffffffffffffffffffffffffffffffff1681526020016005820160149054906101000a900460ff16151515158152602001600682015481526020016007820154815260200160088201805480602002602001604051908101604052809291908181526020018280548015610cc457602002820191906000526020600020905b8160009054906101000a900473ffffffffffffffffffffffffffffffffffffffff1673ffffffffffffffffffffffffffffffffffffffff1681526020019060010190808311610c7a575b5050505050815250509050919050565b60008054905090565b60606002805480602002602001604051908101604052809291908181526020016000905b8282101561109957838290600052602060002090600902016040518061014001604052908160008201548152602001600182018054610d3f90611cc4565b80601f0160208091040260200160405190810160405280929190818152602001828054610d6b90611cc4565b8015610db85780601f10610d8d57610100808354040283529160200191610db8565b820191906000526020600020905b815481529060010190602001808311610d9b57829003601f168201915b50505050508152602001600282018054610dd190611cc4565b80601f0160208091040260200160405190810160405280929190818152602001828054610dfd90611cc4565b8015610e4a5780601f10610e1f57610100808354040283529160200191610e4a565b820191906000526020600020905b815481529060010190602001808311610e2d57829003601f168201915b50505050508152602001600382018054610e6390611cc4565b80601f0160208091040260200160405190810160405280929190818152602001828054610e8f90611cc4565b8015610edc5780601f10610eb157610100808354040283529160200191610edc565b820191906000526020600020905b815481529060010190602001808311610ebf57829003601f168201915b50505050508152602001600482018054610ef590611cc4565b80601f0160208091040260200160405190810160405280929190818152602001828054610f2190611cc4565b8015610f6e5780601f10610f4357610100808354040283529160200191610f6e565b820191906000526020600020905b815481529060010190602001808311610f5157829003601f168201915b505050505081526020016005820160009054906101000a900473ffffffffffffffffffffffffffffffffffffffff1673ffffffffffffffffffffffffffffffffffffffff1673ffffffffffffffffffffffffffffffffffffffff1681526020016005820160149054906101000a900460ff1615151515815260200160068201548152602001600782015481526020016008820180548060200260200160405190810160405280929190818152602001828054801561108157602002820191906000526020600020905b8160009054906101000a900473ffffffffffffffffffffffffffffffffffffffff1673ffffffffffffffffffffffffffffffffffffffff1681526020019060010190808311611037575b50505050508152505081526020019060010190610d01565b50505050905090565b611138816040516024016110b69190611932565b6040516020818303038152906040527f41304fac000000000000000000000000000000000000000000000000000000007bffffffffffffffffffffffffffffffffffffffffffffffffffffffff19166020820180517bffffffffffffffffffffffffffffffffffffffffffffffffffffffff838183161783525050505061115f565b50565b6001816000016000828254019250508190555050565b600081600001549050919050565b60008151905060006a636f6e736f6c652e6c6f679050602083016000808483855afa5050505050565b82805461119490611cc4565b90600052602060002090601f0160209004810192826111b657600085556111fd565b82601f106111cf57805160ff19168380011785556111fd565b828001600101855582156111fd579182015b828111156111fc5782518255916020019190600101906111e1565b5b50905061120a9190611303565b5090565b828054828255906000526020600020908101928215611287579160200282015b828111156112865782518260006101000a81548173ffffffffffffffffffffffffffffffffffffffff021916908373ffffffffffffffffffffffffffffffffffffffff1602179055509160200191906001019061122e565b5b5090506112949190611303565b5090565b6040518061014001604052806000815260200160608152602001606081526020016060815260200160608152602001600073ffffffffffffffffffffffffffffffffffffffff1681526020016000151581526020016000815260200160008152602001606081525090565b5b8082111561131c576000816000905550600101611304565b5090565b600061133361132e84611a75565b611a50565b90508281526020810184848401111561134b57600080fd5b611356848285611c82565b509392505050565b600082601f83011261136f57600080fd5b813561137f848260208601611320565b91505092915050565b60008135905061139781611e0e565b92915050565b600080600080608085870312156113b357600080fd5b600085013567ffffffffffffffff8111156113cd57600080fd5b6113d98782880161135e565b945050602085013567ffffffffffffffff8111156113f657600080fd5b6114028782880161135e565b935050604085013567ffffffffffffffff81111561141f57600080fd5b61142b8782880161135e565b925050606085013567ffffffffffffffff81111561144857600080fd5b6114548782880161135e565b91505092959194509250565b60006020828403121561147257600080fd5b600061148084828501611388565b91505092915050565b6000806040838503121561149c57600080fd5b60006114aa85828601611388565b925050602083013567ffffffffffffffff8111156114c757600080fd5b6114d38582860161135e565b9150509250929050565b60006114e98383611509565b60208301905092915050565b60006115018383611706565b905092915050565b61151281611c1e565b82525050565b61152181611c1e565b82525050565b600061153282611ac6565b61153c8185611b01565b935061154783611aa6565b8060005b8381101561157857815161155f88826114dd565b975061156a83611ae7565b92505060018101905061154b565b5085935050505092915050565b600061159082611ac6565b61159a8185611b12565b93506115a583611aa6565b8060005b838110156115d65781516115bd88826114dd565b97506115c883611ae7565b9250506001810190506115a9565b5085935050505092915050565b60006115ee82611ad1565b6115f88185611b23565b93508360208202850161160a85611ab6565b8060005b85811015611646578484038952815161162785826114f5565b945061163283611af4565b925060208a0199505060018101905061160e565b50829750879550505050505092915050565b61166181611c30565b82525050565b61167081611c30565b82525050565b61167f81611c3c565b82525050565b61168e81611c70565b82525050565b600061169f82611adc565b6116a98185611b34565b93506116b9818560208601611c91565b6116c281611dfd565b840191505092915050565b60006116d882611adc565b6116e28185611b45565b93506116f2818560208601611c91565b6116fb81611dfd565b840191505092915050565b60006101408301600083015161171f60008601826118f2565b50602083015184820360208601526117378282611694565b915050604083015184820360408601526117518282611694565b9150506060830151848203606086015261176b8282611694565b915050608083015184820360808601526117858282611694565b91505060a083015161179a60a0860182611509565b5060c08301516117ad60c0860182611658565b5060e08301516117c060e0860182611676565b506101008301516117d5610100860182611676565b506101208301518482036101208601526117ef8282611527565b9150508091505092915050565b60006101408301600083015161181560008601826118f2565b506020830151848203602086015261182d8282611694565b915050604083015184820360408601526118478282611694565b915050606083015184820360608601526118618282611694565b9150506080830151848203608086015261187b8282611694565b91505060a083015161189060a0860182611509565b5060c08301516118a360c0860182611658565b5060e08301516118b660e0860182611676565b506101008301516118cb610100860182611676565b506101208301518482036101208601526118e58282611527565b9150508091505092915050565b6118fb81611c66565b82525050565b61190a81611c66565b82525050565b6000602082019050818103600083015261192a81846115e3565b905092915050565b6000602082019050818103600083015261194c81846116cd565b905092915050565b6000602082019050818103600083015261196e81846117fc565b905092915050565b600060208201905061198b6000830184611901565b92915050565b6000610140820190506119a7600083018d611901565b81810360208301526119b9818c6116cd565b905081810360408301526119cd818b6116cd565b905081810360608301526119e1818a6116cd565b905081810360808301526119f581896116cd565b9050611a0460a0830188611518565b611a1160c0830187611667565b611a1e60e0830186611685565b611a2c610100830185611685565b818103610120830152611a3f8184611585565b90509b9a5050505050505050505050565b6000611a5a611a6b565b9050611a668282611cf6565b919050565b6000604051905090565b600067ffffffffffffffff821115611a9057611a8f611dce565b5b611a9982611dfd565b9050602081019050919050565b6000819050602082019050919050565b6000819050602082019050919050565b600081519050919050565b600081519050919050565b600081519050919050565b6000602082019050919050565b6000602082019050919050565b600082825260208201905092915050565b600082825260208201905092915050565b600082825260208201905092915050565b600082825260208201905092915050565b600082825260208201905092915050565b6000611b6182611c3c565b9150611b6c83611c3c565b9250817f7fffffffffffffffffffffffffffffffffffffffffffffffffffffffffffffff03831360008312151615611ba757611ba6611d70565b5b817f8000000000000000000000000000000000000000000000000000000000000000038312600083121615611bdf57611bde611d70565b5b828201905092915050565b6000611bf582611c66565b9150611c0083611c66565b925082821015611c1357611c12611d70565b5b828203905092915050565b6000611c2982611c46565b9050919050565b60008115159050919050565b6000819050919050565b600073ffffffffffffffffffffffffffffffffffffffff82169050919050565b6000819050919050565b6000611c7b82611c3c565b9050919050565b82818337600083830152505050565b60005b83811015611caf578082015181840152602081019050611c94565b83811115611cbe576000848401525b50505050565b60006002820490506001821680611cdc57607f821691505b60208210811415611cf057611cef611d9f565b5b50919050565b611cff82611dfd565b810181811067ffffffffffffffff82111715611d1e57611d1d611dce565b5b80604052505050565b6000611d3282611c66565b91507fffffffffffffffffffffffffffffffffffffffffffffffffffffffffffffffff821415611d6557611d64611d70565b5b600182019050919050565b7f4e487b7100000000000000000000000000000000000000000000000000000000600052601160045260246000fd5b7f4e487b7100000000000000000000000000000000000000000000000000000000600052602260045260246000fd5b7f4e487b7100000000000000000000000000000000000000000000000000000000600052604160045260246000fd5b6000601f19601f8301169050919050565b611e1781611c66565b8114611e2257600080fd5b5056fea264697066735822122060083f4a0ff17b3cd4beca9c42b9e9e7bbdb4c8f685fb16dea000ebb2733312364736f6c63430008040033",
  "linkReferences": {},
  "deployedLinkReferences": {}
}