{
  "_format": "hh-sol-artifact-1",
  "contractName": "News",
  "sourceName": "contracts/News.sol",
  "abi": [
    {
      "inputs": [],
      "stateMutability": "nonpayable",
      "type": "constructor"
    },
    {
      "anonymous": false,
      "inputs": [
        {
          "indexed": false,
          "internalType": "uint256",
          "name": "id",
          "type": "uint256"
        },
        {
          "indexed": false,
          "internalType": "string",
          "name": "title",
          "type": "string"
        },
        {
          "indexed": false,
          "internalType": "string",
          "name": "description",
          "type": "string"
        },
        {
          "indexed": false,
          "internalType": "string",
          "name": "image",
          "type": "string"
        },
        {
          "indexed": false,
          "internalType": "string",
          "name": "date",
          "type": "string"
        },
        {
          "indexed": false,
          "internalType": "address",
          "name": "author",
          "type": "address"
        },
        {
          "indexed": false,
          "internalType": "bool",
          "name": "voted",
          "type": "bool"
        },
        {
          "indexed": false,
          "internalType": "int256",
          "name": "approved",
          "type": "int256"
        },
        {
          "indexed": false,
          "internalType": "int256",
          "name": "declined",
          "type": "int256"
        },
        {
          "indexed": false,
          "internalType": "address[]",
          "name": "voters",
          "type": "address[]"
        },
        {
          "indexed": false,
          "internalType": "address[]",
          "name": "approvers",
          "type": "address[]"
        },
        {
          "indexed": false,
          "internalType": "address[]",
          "name": "decliners",
          "type": "address[]"
        }
      ],
      "name": "NewCreated",
      "type": "event"
    },
    {
      "inputs": [
        {
          "internalType": "string",
          "name": "_title",
          "type": "string"
        },
        {
          "internalType": "string",
          "name": "_description",
          "type": "string"
        },
        {
          "internalType": "string",
          "name": "_image",
          "type": "string"
        },
        {
          "internalType": "string",
          "name": "_date",
          "type": "string"
        }
      ],
      "name": "createNew",
      "outputs": [],
      "stateMutability": "nonpayable",
      "type": "function"
    },
    {
      "inputs": [],
      "name": "getAllNews",
      "outputs": [
        {
          "components": [
            {
              "internalType": "uint256",
              "name": "id",
              "type": "uint256"
            },
            {
              "internalType": "string",
              "name": "title",
              "type": "string"
            },
            {
              "internalType": "string",
              "name": "description",
              "type": "string"
            },
            {
              "internalType": "string",
              "name": "image",
              "type": "string"
            },
            {
              "internalType": "string",
              "name": "date",
              "type": "string"
            },
            {
              "internalType": "address",
              "name": "author",
              "type": "address"
            },
            {
              "internalType": "bool",
              "name": "voted",
              "type": "bool"
            },
            {
              "internalType": "int256",
              "name": "approved",
              "type": "int256"
            },
            {
              "internalType": "int256",
              "name": "declined",
              "type": "int256"
            },
            {
              "internalType": "address[]",
              "name": "voters",
              "type": "address[]"
            },
            {
              "internalType": "address[]",
              "name": "approvers",
              "type": "address[]"
            },
            {
              "internalType": "address[]",
              "name": "decliners",
              "type": "address[]"
            }
          ],
          "internalType": "struct News.New[]",
          "name": "",
          "type": "tuple[]"
        }
      ],
      "stateMutability": "view",
      "type": "function"
    },
    {
      "inputs": [
        {
          "internalType": "uint256",
          "name": "_id",
          "type": "uint256"
        }
      ],
      "name": "getNew",
      "outputs": [
        {
          "components": [
            {
              "internalType": "uint256",
              "name": "id",
              "type": "uint256"
            },
            {
              "internalType": "string",
              "name": "title",
              "type": "string"
            },
            {
              "internalType": "string",
              "name": "description",
              "type": "string"
            },
            {
              "internalType": "string",
              "name": "image",
              "type": "string"
            },
            {
              "internalType": "string",
              "name": "date",
              "type": "string"
            },
            {
              "internalType": "address",
              "name": "author",
              "type": "address"
            },
            {
              "internalType": "bool",
              "name": "voted",
              "type": "bool"
            },
            {
              "internalType": "int256",
              "name": "approved",
              "type": "int256"
            },
            {
              "internalType": "int256",
              "name": "declined",
              "type": "int256"
            },
            {
              "internalType": "address[]",
              "name": "voters",
              "type": "address[]"
            },
            {
              "internalType": "address[]",
              "name": "approvers",
              "type": "address[]"
            },
            {
              "internalType": "address[]",
              "name": "decliners",
              "type": "address[]"
            }
          ],
          "internalType": "struct News.New",
          "name": "",
          "type": "tuple"
        }
      ],
      "stateMutability": "view",
      "type": "function"
    },
    {
      "inputs": [],
      "name": "getTotalNews",
      "outputs": [
        {
          "internalType": "uint256",
          "name": "",
          "type": "uint256"
        }
      ],
      "stateMutability": "view",
      "type": "function"
    },
    {
      "inputs": [
        {
          "internalType": "address",
          "name": "receiver",
          "type": "address"
        }
      ],
      "name": "transfer",
      "outputs": [],
      "stateMutability": "payable",
      "type": "function"
    },
    {
      "inputs": [
        {
          "internalType": "uint256",
          "name": "_id",
          "type": "uint256"
        },
        {
          "internalType": "string",
          "name": "_vote",
          "type": "string"
        }
      ],
      "name": "vote",
      "outputs": [],
      "stateMutability": "nonpayable",
      "type": "function"
    }
  ],
  "bytecode": "0x60806040523480156200001157600080fd5b506200005d6040518060400160405280600d81526020017f4e657773206465706c6f796564000000000000000000000000000000000000008152506200006360201b620019ec1760201c565b620001f7565b62000103816040516024016200007a919062000170565b6040516020818303038152906040527f41304fac000000000000000000000000000000000000000000000000000000007bffffffffffffffffffffffffffffffffffffffffffffffffffffffff19166020820180517bffffffffffffffffffffffffffffffffffffffffffffffffffffffff83818316178352505050506200010660201b60201c565b50565b60008151905060006a636f6e736f6c652e6c6f679050602083016000808483855afa5050505050565b60006200013c8262000194565b6200014881856200019f565b93506200015a818560208601620001b0565b6200016581620001e6565b840191505092915050565b600060208201905081810360008301526200018c81846200012f565b905092915050565b600081519050919050565b600082825260208201905092915050565b60005b83811015620001d0578082015181840152602081019050620001b3565b83811115620001e0576000848401525b50505050565b6000601f19601f8301169050919050565b6128bf80620002076000396000f3fe6080604052600436106100555760003560e01c80631a6952301461005a57806324108475146100765780633f1774fd1461009f578063702b908f146100c8578063d204ff3e14610105578063f584ecd114610130575b600080fd5b610074600480360381019061006f9190611d0a565b61015b565b005b34801561008257600080fd5b5061009d60048036038101906100989190611e1f565b6101ad565b005b3480156100ab57600080fd5b506100c660048036038101906100c19190611d33565b610a9f565b005b3480156100d457600080fd5b506100ef60048036038101906100ea9190611df6565b611012565b6040516100fc9190612375565b60405180910390f35b34801561011157600080fd5b5061011a611502565b6040516101279190612397565b60405180910390f35b34801561013c57600080fd5b5061014561150b565b6040516101529190612331565b60405180910390f35b8073ffffffffffffffffffffffffffffffffffffffff166108fc670de0b6b3a76400009081150290604051600060405180830381858888f193505050501580156101a9573d6000803e3d6000fd5b5050565b6000151560026001846101c09190612637565b815481106101f7577f4e487b7100000000000000000000000000000000000000000000000000000000600052603260045260246000fd5b90600052602060002090600b020160050160149054906101000a900460ff1615151461022257600080fd5b6040518060400160405280600881526020017f417070726f7665640000000000000000000000000000000000000000000000008152508051906020012081805190602001201415610451576001600260018461027e9190612637565b815481106102b5577f4e487b7100000000000000000000000000000000000000000000000000000000600052603260045260246000fd5b90600052602060002090600b020160060160008282546102d591906125a3565b9250508190555060026001836102eb9190612637565b81548110610322577f4e487b7100000000000000000000000000000000000000000000000000000000600052603260045260246000fd5b90600052602060002090600b0201600801339080600181540180825580915050600190039060005260206000200160009091909190916101000a81548173ffffffffffffffffffffffffffffffffffffffff021916908373ffffffffffffffffffffffffffffffffffffffff16021790555060026001836103a39190612637565b815481106103da577f4e487b7100000000000000000000000000000000000000000000000000000000600052603260045260246000fd5b90600052602060002090600b0201600901339080600181540180825580915050600190039060005260206000200160009091909190916101000a81548173ffffffffffffffffffffffffffffffffffffffff021916908373ffffffffffffffffffffffffffffffffffffffff16021790555061067d565b6040518060400160405280600881526020017f4465636c696e6564000000000000000000000000000000000000000000000000815250805190602001208180519060200120141561067c57600160026001846104ad9190612637565b815481106104e4577f4e487b7100000000000000000000000000000000000000000000000000000000600052603260045260246000fd5b90600052602060002090600b0201600701600082825461050491906125a3565b92505081905550600260018361051a9190612637565b81548110610551577f4e487b7100000000000000000000000000000000000000000000000000000000600052603260045260246000fd5b90600052602060002090600b0201600801339080600181540180825580915050600190039060005260206000200160009091909190916101000a81548173ffffffffffffffffffffffffffffffffffffffff021916908373ffffffffffffffffffffffffffffffffffffffff16021790555060026001836105d29190612637565b81548110610609577f4e487b7100000000000000000000000000000000000000000000000000000000600052603260045260246000fd5b90600052602060002090600b0201600a01339080600181540180825580915050600190039060005260206000200160009091909190916101000a81548173ffffffffffffffffffffffffffffffffffffffff021916908373ffffffffffffffffffffffffffffffffffffffff1602179055505b5b60028060018461068d9190612637565b815481106106c4577f4e487b7100000000000000000000000000000000000000000000000000000000600052603260045260246000fd5b90600052602060002090600b020160060154148061073857506002806001846106ed9190612637565b81548110610724577f4e487b7100000000000000000000000000000000000000000000000000000000600052603260045260246000fd5b90600052602060002090600b020160070154145b15610a9b576001600260018461074e9190612637565b81548110610785577f4e487b7100000000000000000000000000000000000000000000000000000000600052603260045260246000fd5b90600052602060002090600b020160050160146101000a81548160ff0219169083151502179055506002806001846107bd9190612637565b815481106107f4577f4e487b7100000000000000000000000000000000000000000000000000000000600052603260045260246000fd5b90600052602060002090600b02016006015414156109555760005b600281101561094f573073ffffffffffffffffffffffffffffffffffffffff16631a69523060026001866108439190612637565b8154811061087a577f4e487b7100000000000000000000000000000000000000000000000000000000600052603260045260246000fd5b90600052602060002090600b020160090183815481106108c3577f4e487b7100000000000000000000000000000000000000000000000000000000600052603260045260246000fd5b9060005260206000200160009054906101000a900473ffffffffffffffffffffffffffffffffffffffff166040518263ffffffff1660e01b815260040161090a9190612316565b600060405180830381600087803b15801561092457600080fd5b505af1158015610938573d6000803e3d6000fd5b50505050808061094790612774565b91505061080f565b50610a9a565b60005b6002811015610a98573073ffffffffffffffffffffffffffffffffffffffff16631a695230600260018661098c9190612637565b815481106109c3577f4e487b7100000000000000000000000000000000000000000000000000000000600052603260045260246000fd5b90600052602060002090600b0201600a018381548110610a0c577f4e487b7100000000000000000000000000000000000000000000000000000000600052603260045260246000fd5b9060005260206000200160009054906101000a900473ffffffffffffffffffffffffffffffffffffffff166040518263ffffffff1660e01b8152600401610a539190612316565b600060405180830381600087803b158015610a6d57600080fd5b505af1158015610a81573d6000803e3d6000fd5b505050508080610a9090612774565b915050610958565b505b5b5050565b6000845111610aad57600080fd5b6000835111610abb57600080fd5b6000825111610ac957600080fd5b600073ffffffffffffffffffffffffffffffffffffffff163373ffffffffffffffffffffffffffffffffffffffff161415610b0357600080fd5b600080815480929190610b1590612774565b9190505550610b246001611a85565b6002604051806101800160405280610b3c6001611a9b565b81526020018681526020018581526020018481526020018381526020013373ffffffffffffffffffffffffffffffffffffffff1681526020016000151581526020016000815260200160008152602001600067ffffffffffffffff811115610bcd577f4e487b7100000000000000000000000000000000000000000000000000000000600052604160045260246000fd5b604051908082528060200260200182016040528015610bfb5781602001602082028036833780820191505090505b508152602001600067ffffffffffffffff811115610c42577f4e487b7100000000000000000000000000000000000000000000000000000000600052604160045260246000fd5b604051908082528060200260200182016040528015610c705781602001602082028036833780820191505090505b508152602001600067ffffffffffffffff811115610cb7577f4e487b7100000000000000000000000000000000000000000000000000000000600052604160045260246000fd5b604051908082528060200260200182016040528015610ce55781602001602082028036833780820191505090505b5081525090806001815401808255809150506001900390600052602060002090600b0201600090919091909150600082015181600001556020820151816001019080519060200190610d38929190611ad2565b506040820151816002019080519060200190610d55929190611ad2565b506060820151816003019080519060200190610d72929190611ad2565b506080820151816004019080519060200190610d8f929190611ad2565b5060a08201518160050160006101000a81548173ffffffffffffffffffffffffffffffffffffffff021916908373ffffffffffffffffffffffffffffffffffffffff16021790555060c08201518160050160146101000a81548160ff02191690831515021790555060e082015181600601556101008201518160070155610120820151816008019080519060200190610e29929190611b58565b50610140820151816009019080519060200190610e47929190611b58565b5061016082015181600a019080519060200190610e65929190611b58565b5050507f4d78a08ed2c58b8f9956bf8e26ae1f2a30fe8ea19d81ee9625cf8e6ef38a92ab610e936001611a9b565b858585853360008060008067ffffffffffffffff811115610edd577f4e487b7100000000000000000000000000000000000000000000000000000000600052604160045260246000fd5b604051908082528060200260200182016040528015610f0b5781602001602082028036833780820191505090505b50600067ffffffffffffffff811115610f4d577f4e487b7100000000000000000000000000000000000000000000000000000000600052604160045260246000fd5b604051908082528060200260200182016040528015610f7b5781602001602082028036833780820191505090505b50600067ffffffffffffffff811115610fbd577f4e487b7100000000000000000000000000000000000000000000000000000000600052604160045260246000fd5b604051908082528060200260200182016040528015610feb5781602001602082028036833780820191505090505b506040516110049c9b9a999897969594939291906123b2565b60405180910390a150505050565b61101a611be2565b60026001836110299190612637565b81548110611060577f4e487b7100000000000000000000000000000000000000000000000000000000600052603260045260246000fd5b90600052602060002090600b0201604051806101800160405290816000820154815260200160018201805461109490612711565b80601f01602080910402602001604051908101604052809291908181526020018280546110c090612711565b801561110d5780601f106110e25761010080835404028352916020019161110d565b820191906000526020600020905b8154815290600101906020018083116110f057829003601f168201915b5050505050815260200160028201805461112690612711565b80601f016020809104026020016040519081016040528092919081815260200182805461115290612711565b801561119f5780601f106111745761010080835404028352916020019161119f565b820191906000526020600020905b81548152906001019060200180831161118257829003601f168201915b505050505081526020016003820180546111b890612711565b80601f01602080910402602001604051908101604052809291908181526020018280546111e490612711565b80156112315780601f1061120657610100808354040283529160200191611231565b820191906000526020600020905b81548152906001019060200180831161121457829003601f168201915b5050505050815260200160048201805461124a90612711565b80601f016020809104026020016040519081016040528092919081815260200182805461127690612711565b80156112c35780601f10611298576101008083540402835291602001916112c3565b820191906000526020600020905b8154815290600101906020018083116112a657829003601f168201915b505050505081526020016005820160009054906101000a900473ffffffffffffffffffffffffffffffffffffffff1673ffffffffffffffffffffffffffffffffffffffff1673ffffffffffffffffffffffffffffffffffffffff1681526020016005820160149054906101000a900460ff161515151581526020016006820154815260200160078201548152602001600882018054806020026020016040519081016040528092919081815260200182805480156113d657602002820191906000526020600020905b8160009054906101000a900473ffffffffffffffffffffffffffffffffffffffff1673ffffffffffffffffffffffffffffffffffffffff168152602001906001019080831161138c575b505050505081526020016009820180548060200260200160405190810160405280929190818152602001828054801561146457602002820191906000526020600020905b8160009054906101000a900473ffffffffffffffffffffffffffffffffffffffff1673ffffffffffffffffffffffffffffffffffffffff168152602001906001019080831161141a575b50505050508152602001600a82018054806020026020016040519081016040528092919081815260200182805480156114f257602002820191906000526020600020905b8160009054906101000a900473ffffffffffffffffffffffffffffffffffffffff1673ffffffffffffffffffffffffffffffffffffffff16815260200190600101908083116114a8575b5050505050815250509050919050565b60008054905090565b60606002805480602002602001604051908101604052809291908181526020016000905b828210156119e357838290600052602060002090600b0201604051806101800160405290816000820154815260200160018201805461156d90612711565b80601f016020809104026020016040519081016040528092919081815260200182805461159990612711565b80156115e65780601f106115bb576101008083540402835291602001916115e6565b820191906000526020600020905b8154815290600101906020018083116115c957829003601f168201915b505050505081526020016002820180546115ff90612711565b80601f016020809104026020016040519081016040528092919081815260200182805461162b90612711565b80156116785780601f1061164d57610100808354040283529160200191611678565b820191906000526020600020905b81548152906001019060200180831161165b57829003601f168201915b5050505050815260200160038201805461169190612711565b80601f01602080910402602001604051908101604052809291908181526020018280546116bd90612711565b801561170a5780601f106116df5761010080835404028352916020019161170a565b820191906000526020600020905b8154815290600101906020018083116116ed57829003601f168201915b5050505050815260200160048201805461172390612711565b80601f016020809104026020016040519081016040528092919081815260200182805461174f90612711565b801561179c5780601f106117715761010080835404028352916020019161179c565b820191906000526020600020905b81548152906001019060200180831161177f57829003601f168201915b505050505081526020016005820160009054906101000a900473ffffffffffffffffffffffffffffffffffffffff1673ffffffffffffffffffffffffffffffffffffffff1673ffffffffffffffffffffffffffffffffffffffff1681526020016005820160149054906101000a900460ff161515151581526020016006820154815260200160078201548152602001600882018054806020026020016040519081016040528092919081815260200182805480156118af57602002820191906000526020600020905b8160009054906101000a900473ffffffffffffffffffffffffffffffffffffffff1673ffffffffffffffffffffffffffffffffffffffff1681526020019060010190808311611865575b505050505081526020016009820180548060200260200160405190810160405280929190818152602001828054801561193d57602002820191906000526020600020905b8160009054906101000a900473ffffffffffffffffffffffffffffffffffffffff1673ffffffffffffffffffffffffffffffffffffffff16815260200190600101908083116118f3575b50505050508152602001600a82018054806020026020016040519081016040528092919081815260200182805480156119cb57602002820191906000526020600020905b8160009054906101000a900473ffffffffffffffffffffffffffffffffffffffff1673ffffffffffffffffffffffffffffffffffffffff1681526020019060010190808311611981575b5050505050815250508152602001906001019061152f565b50505050905090565b611a8281604051602401611a009190612353565b6040516020818303038152906040527f41304fac000000000000000000000000000000000000000000000000000000007bffffffffffffffffffffffffffffffffffffffffffffffffffffffff19166020820180517bffffffffffffffffffffffffffffffffffffffffffffffffffffffff8381831617835250505050611aa9565b50565b6001816000016000828254019250508190555050565b600081600001549050919050565b60008151905060006a636f6e736f6c652e6c6f679050602083016000808483855afa5050505050565b828054611ade90612711565b90600052602060002090601f016020900481019282611b005760008555611b47565b82601f10611b1957805160ff1916838001178555611b47565b82800160010185558215611b47579182015b82811115611b46578251825591602001919060010190611b2b565b5b509050611b549190611c5b565b5090565b828054828255906000526020600020908101928215611bd1579160200282015b82811115611bd05782518260006101000a81548173ffffffffffffffffffffffffffffffffffffffff021916908373ffffffffffffffffffffffffffffffffffffffff16021790555091602001919060010190611b78565b5b509050611bde9190611c5b565b5090565b6040518061018001604052806000815260200160608152602001606081526020016060815260200160608152602001600073ffffffffffffffffffffffffffffffffffffffff16815260200160001515815260200160008152602001600081526020016060815260200160608152602001606081525090565b5b80821115611c74576000816000905550600101611c5c565b5090565b6000611c8b611c86846124c2565b61249d565b905082815260208101848484011115611ca357600080fd5b611cae8482856126cf565b509392505050565b600081359050611cc58161285b565b92915050565b600082601f830112611cdc57600080fd5b8135611cec848260208601611c78565b91505092915050565b600081359050611d0481612872565b92915050565b600060208284031215611d1c57600080fd5b6000611d2a84828501611cb6565b91505092915050565b60008060008060808587031215611d4957600080fd5b600085013567ffffffffffffffff811115611d6357600080fd5b611d6f87828801611ccb565b945050602085013567ffffffffffffffff811115611d8c57600080fd5b611d9887828801611ccb565b935050604085013567ffffffffffffffff811115611db557600080fd5b611dc187828801611ccb565b925050606085013567ffffffffffffffff811115611dde57600080fd5b611dea87828801611ccb565b91505092959194509250565b600060208284031215611e0857600080fd5b6000611e1684828501611cf5565b91505092915050565b60008060408385031215611e3257600080fd5b6000611e4085828601611cf5565b925050602083013567ffffffffffffffff811115611e5d57600080fd5b611e6985828601611ccb565b9150509250929050565b6000611e7f8383611e9f565b60208301905092915050565b6000611e97838361209c565b905092915050565b611ea88161266b565b82525050565b611eb78161266b565b82525050565b6000611ec882612513565b611ed2818561254e565b9350611edd836124f3565b8060005b83811015611f0e578151611ef58882611e73565b9750611f0083612534565b925050600181019050611ee1565b5085935050505092915050565b6000611f2682612513565b611f30818561255f565b9350611f3b836124f3565b8060005b83811015611f6c578151611f538882611e73565b9750611f5e83612534565b925050600181019050611f3f565b5085935050505092915050565b6000611f848261251e565b611f8e8185612570565b935083602082028501611fa085612503565b8060005b85811015611fdc5784840389528151611fbd8582611e8b565b9450611fc883612541565b925060208a01995050600181019050611fa4565b50829750879550505050505092915050565b611ff78161267d565b82525050565b6120068161267d565b82525050565b61201581612689565b82525050565b612024816126bd565b82525050565b600061203582612529565b61203f8185612581565b935061204f8185602086016126de565b6120588161284a565b840191505092915050565b600061206e82612529565b6120788185612592565b93506120888185602086016126de565b6120918161284a565b840191505092915050565b6000610180830160008301516120b560008601826122f8565b50602083015184820360208601526120cd828261202a565b915050604083015184820360408601526120e7828261202a565b91505060608301518482036060860152612101828261202a565b9150506080830151848203608086015261211b828261202a565b91505060a083015161213060a0860182611e9f565b5060c083015161214360c0860182611fee565b5060e083015161215660e086018261200c565b5061010083015161216b61010086018261200c565b506101208301518482036101208601526121858282611ebd565b9150506101408301518482036101408601526121a18282611ebd565b9150506101608301518482036101608601526121bd8282611ebd565b9150508091505092915050565b6000610180830160008301516121e360008601826122f8565b50602083015184820360208601526121fb828261202a565b91505060408301518482036040860152612215828261202a565b9150506060830151848203606086015261222f828261202a565b91505060808301518482036080860152612249828261202a565b91505060a083015161225e60a0860182611e9f565b5060c083015161227160c0860182611fee565b5060e083015161228460e086018261200c565b5061010083015161229961010086018261200c565b506101208301518482036101208601526122b38282611ebd565b9150506101408301518482036101408601526122cf8282611ebd565b9150506101608301518482036101608601526122eb8282611ebd565b9150508091505092915050565b612301816126b3565b82525050565b612310816126b3565b82525050565b600060208201905061232b6000830184611eae565b92915050565b6000602082019050818103600083015261234b8184611f79565b905092915050565b6000602082019050818103600083015261236d8184612063565b905092915050565b6000602082019050818103600083015261238f81846121ca565b905092915050565b60006020820190506123ac6000830184612307565b92915050565b6000610180820190506123c8600083018f612307565b81810360208301526123da818e612063565b905081810360408301526123ee818d612063565b90508181036060830152612402818c612063565b90508181036080830152612416818b612063565b905061242560a083018a611eae565b61243260c0830189611ffd565b61243f60e083018861201b565b61244d61010083018761201b565b8181036101208301526124608186611f1b565b90508181036101408301526124758185611f1b565b905081810361016083015261248a8184611f1b565b90509d9c50505050505050505050505050565b60006124a76124b8565b90506124b38282612743565b919050565b6000604051905090565b600067ffffffffffffffff8211156124dd576124dc61281b565b5b6124e68261284a565b9050602081019050919050565b6000819050602082019050919050565b6000819050602082019050919050565b600081519050919050565b600081519050919050565b600081519050919050565b6000602082019050919050565b6000602082019050919050565b600082825260208201905092915050565b600082825260208201905092915050565b600082825260208201905092915050565b600082825260208201905092915050565b600082825260208201905092915050565b60006125ae82612689565b91506125b983612689565b9250817f7fffffffffffffffffffffffffffffffffffffffffffffffffffffffffffffff038313600083121516156125f4576125f36127bd565b5b817f800000000000000000000000000000000000000000000000000000000000000003831260008312161561262c5761262b6127bd565b5b828201905092915050565b6000612642826126b3565b915061264d836126b3565b9250828210156126605761265f6127bd565b5b828203905092915050565b600061267682612693565b9050919050565b60008115159050919050565b6000819050919050565b600073ffffffffffffffffffffffffffffffffffffffff82169050919050565b6000819050919050565b60006126c882612689565b9050919050565b82818337600083830152505050565b60005b838110156126fc5780820151818401526020810190506126e1565b8381111561270b576000848401525b50505050565b6000600282049050600182168061272957607f821691505b6020821081141561273d5761273c6127ec565b5b50919050565b61274c8261284a565b810181811067ffffffffffffffff8211171561276b5761276a61281b565b5b80604052505050565b600061277f826126b3565b91507fffffffffffffffffffffffffffffffffffffffffffffffffffffffffffffffff8214156127b2576127b16127bd565b5b600182019050919050565b7f4e487b7100000000000000000000000000000000000000000000000000000000600052601160045260246000fd5b7f4e487b7100000000000000000000000000000000000000000000000000000000600052602260045260246000fd5b7f4e487b7100000000000000000000000000000000000000000000000000000000600052604160045260246000fd5b6000601f19601f8301169050919050565b6128648161266b565b811461286f57600080fd5b50565b61287b816126b3565b811461288657600080fd5b5056fea2646970667358221220b1d23b683b1bb82cdba2501d86f5cd93c50d7ca08247d1f29d4a82b3995ff18c64736f6c63430008040033",
  "linkReferences": {},
  "deployedLinkReferences": {}
}