{
  "_format": "hh-sol-artifact-1",
  "contractName": "News",
  "sourceName": "contracts/News.sol",
  "abi": [
    {
      "inputs": [],
      "stateMutability": "nonpayable",
      "type": "constructor"
    },
    {
      "anonymous": false,
      "inputs": [
        {
          "indexed": false,
          "internalType": "uint256",
          "name": "id",
          "type": "uint256"
        },
        {
          "indexed": false,
          "internalType": "string",
          "name": "title",
          "type": "string"
        },
        {
          "indexed": false,
          "internalType": "string",
          "name": "description",
          "type": "string"
        },
        {
          "indexed": false,
          "internalType": "string",
          "name": "image",
          "type": "string"
        },
        {
          "indexed": false,
          "internalType": "string",
          "name": "date",
          "type": "string"
        },
        {
          "indexed": false,
          "internalType": "address",
          "name": "author",
          "type": "address"
        },
        {
          "indexed": false,
          "internalType": "bool",
          "name": "voted",
          "type": "bool"
        },
        {
          "indexed": false,
          "internalType": "int256",
          "name": "approved",
          "type": "int256"
        },
        {
          "indexed": false,
          "internalType": "int256",
          "name": "declined",
          "type": "int256"
        }
      ],
      "name": "NewCreated",
      "type": "event"
    },
    {
      "inputs": [
        {
          "internalType": "string",
          "name": "_title",
          "type": "string"
        },
        {
          "internalType": "string",
          "name": "_description",
          "type": "string"
        },
        {
          "internalType": "string",
          "name": "_image",
          "type": "string"
        },
        {
          "internalType": "string",
          "name": "_date",
          "type": "string"
        }
      ],
      "name": "createNew",
      "outputs": [],
      "stateMutability": "nonpayable",
      "type": "function"
    },
    {
      "inputs": [],
      "name": "getAllNews",
      "outputs": [
        {
          "components": [
            {
              "internalType": "uint256",
              "name": "id",
              "type": "uint256"
            },
            {
              "internalType": "string",
              "name": "title",
              "type": "string"
            },
            {
              "internalType": "string",
              "name": "description",
              "type": "string"
            },
            {
              "internalType": "string",
              "name": "image",
              "type": "string"
            },
            {
              "internalType": "string",
              "name": "date",
              "type": "string"
            },
            {
              "internalType": "address",
              "name": "author",
              "type": "address"
            },
            {
              "internalType": "bool",
              "name": "voted",
              "type": "bool"
            },
            {
              "internalType": "int256",
              "name": "approved",
              "type": "int256"
            },
            {
              "internalType": "int256",
              "name": "declined",
              "type": "int256"
            }
          ],
          "internalType": "struct News.New[]",
          "name": "",
          "type": "tuple[]"
        }
      ],
      "stateMutability": "view",
      "type": "function"
    },
    {
      "inputs": [
        {
          "internalType": "uint256",
          "name": "_id",
          "type": "uint256"
        }
      ],
      "name": "getNew",
      "outputs": [
        {
          "components": [
            {
              "internalType": "uint256",
              "name": "id",
              "type": "uint256"
            },
            {
              "internalType": "string",
              "name": "title",
              "type": "string"
            },
            {
              "internalType": "string",
              "name": "description",
              "type": "string"
            },
            {
              "internalType": "string",
              "name": "image",
              "type": "string"
            },
            {
              "internalType": "string",
              "name": "date",
              "type": "string"
            },
            {
              "internalType": "address",
              "name": "author",
              "type": "address"
            },
            {
              "internalType": "bool",
              "name": "voted",
              "type": "bool"
            },
            {
              "internalType": "int256",
              "name": "approved",
              "type": "int256"
            },
            {
              "internalType": "int256",
              "name": "declined",
              "type": "int256"
            }
          ],
          "internalType": "struct News.New",
          "name": "",
          "type": "tuple"
        }
      ],
      "stateMutability": "view",
      "type": "function"
    },
    {
      "inputs": [],
      "name": "getTotalNews",
      "outputs": [
        {
          "internalType": "uint256",
          "name": "",
          "type": "uint256"
        }
      ],
      "stateMutability": "view",
      "type": "function"
    },
    {
      "inputs": [
        {
          "internalType": "uint256",
          "name": "_id",
          "type": "uint256"
        },
        {
          "internalType": "string",
          "name": "_vote",
          "type": "string"
        }
      ],
      "name": "vote",
      "outputs": [],
      "stateMutability": "nonpayable",
      "type": "function"
    }
  ],
  "bytecode": "0x60806040523480156200001157600080fd5b506200005d6040518060400160405280600d81526020017f4e657773206465706c6f796564000000000000000000000000000000000000008152506200006360201b62000d131760201c565b620001f7565b62000103816040516024016200007a919062000170565b6040516020818303038152906040527f41304fac000000000000000000000000000000000000000000000000000000007bffffffffffffffffffffffffffffffffffffffffffffffffffffffff19166020820180517bffffffffffffffffffffffffffffffffffffffffffffffffffffffff83818316178352505050506200010660201b60201c565b50565b60008151905060006a636f6e736f6c652e6c6f679050602083016000808483855afa5050505050565b60006200013c8262000194565b6200014881856200019f565b93506200015a818560208601620001b0565b6200016581620001e6565b840191505092915050565b600060208201905081810360008301526200018c81846200012f565b905092915050565b600081519050919050565b600082825260208201905092915050565b60005b83811015620001d0578082015181840152602081019050620001b3565b83811115620001e0576000848401525b50505050565b6000601f19601f8301169050919050565b6118cf80620002076000396000f3fe608060405234801561001057600080fd5b50600436106100575760003560e01c8063241084751461005c5780633f1774fd14610078578063702b908f14610094578063d204ff3e146100c4578063f584ecd1146100e2575b600080fd5b61007660048036038101906100719190611069565b610100565b005b610092600480360381019061008d9190610f7d565b610425565b005b6100ae60048036038101906100a99190611040565b61068d565b6040516100bb9190611428565b60405180910390f35b6100cc6109d3565b6040516100d9919061144a565b60405180910390f35b6100ea6109dc565b6040516100f791906113e4565b60405180910390f35b600015156002600184610113919061165e565b8154811061014a577f4e487b7100000000000000000000000000000000000000000000000000000000600052603260045260246000fd5b906000526020600020906008020160050160149054906101000a900460ff1615151461017557600080fd5b6040518060400160405280600881526020017f417070726f766564000000000000000000000000000000000000000000000000815250805190602001208180519060200120141561023457600160026001846101d1919061165e565b81548110610208577f4e487b7100000000000000000000000000000000000000000000000000000000600052603260045260246000fd5b9060005260206000209060080201600601600082825461022891906115ca565b925050819055506102f0565b6040518060400160405280600881526020017f4465636c696e656400000000000000000000000000000000000000000000000081525080519060200120818051906020012014156102ef5760016002600184610290919061165e565b815481106102c7577f4e487b7100000000000000000000000000000000000000000000000000000000600052603260045260246000fd5b906000526020600020906008020160070160008282546102e791906115ca565b925050819055505b5b600280600184610300919061165e565b81548110610337577f4e487b7100000000000000000000000000000000000000000000000000000000600052603260045260246000fd5b90600052602060002090600802016006015414806103ab5750600280600184610360919061165e565b81548110610397577f4e487b7100000000000000000000000000000000000000000000000000000000600052603260045260246000fd5b906000526020600020906008020160070154145b1561042157600160026001846103c1919061165e565b815481106103f8577f4e487b7100000000000000000000000000000000000000000000000000000000600052603260045260246000fd5b906000526020600020906008020160050160146101000a81548160ff0219169083151502179055505b5050565b600084511161043357600080fd5b600083511161044157600080fd5b600082511161044f57600080fd5b600073ffffffffffffffffffffffffffffffffffffffff163373ffffffffffffffffffffffffffffffffffffffff16141561048957600080fd5b60008081548092919061049b9061179b565b91905055506104aa6001610dac565b60026040518061012001604052806104c26001610dc2565b81526020018681526020018581526020018481526020018381526020013373ffffffffffffffffffffffffffffffffffffffff168152602001600015158152602001600081526020016000815250908060018154018082558091505060019003906000526020600020906008020160009091909190915060008201518160000155602082015181600101908051906020019061055f929190610df9565b50604082015181600201908051906020019061057c929190610df9565b506060820151816003019080519060200190610599929190610df9565b5060808201518160040190805190602001906105b6929190610df9565b5060a08201518160050160006101000a81548173ffffffffffffffffffffffffffffffffffffffff021916908373ffffffffffffffffffffffffffffffffffffffff16021790555060c08201518160050160146101000a81548160ff02191690831515021790555060e08201518160060155610100820151816007015550507f2cb436e40b235c205d86469e12433374743135ddc4802150d1887108b6b04b4a6106606001610dc2565b8585858533600080600060405161067f99989796959493929190611465565b60405180910390a150505050565b610695610e7f565b60026001836106a4919061165e565b815481106106db577f4e487b7100000000000000000000000000000000000000000000000000000000600052603260045260246000fd5b9060005260206000209060080201604051806101200160405290816000820154815260200160018201805461070f90611738565b80601f016020809104026020016040519081016040528092919081815260200182805461073b90611738565b80156107885780601f1061075d57610100808354040283529160200191610788565b820191906000526020600020905b81548152906001019060200180831161076b57829003601f168201915b505050505081526020016002820180546107a190611738565b80601f01602080910402602001604051908101604052809291908181526020018280546107cd90611738565b801561081a5780601f106107ef5761010080835404028352916020019161081a565b820191906000526020600020905b8154815290600101906020018083116107fd57829003601f168201915b5050505050815260200160038201805461083390611738565b80601f016020809104026020016040519081016040528092919081815260200182805461085f90611738565b80156108ac5780601f10610881576101008083540402835291602001916108ac565b820191906000526020600020905b81548152906001019060200180831161088f57829003601f168201915b505050505081526020016004820180546108c590611738565b80601f01602080910402602001604051908101604052809291908181526020018280546108f190611738565b801561093e5780601f106109135761010080835404028352916020019161093e565b820191906000526020600020905b81548152906001019060200180831161092157829003601f168201915b505050505081526020016005820160009054906101000a900473ffffffffffffffffffffffffffffffffffffffff1673ffffffffffffffffffffffffffffffffffffffff1673ffffffffffffffffffffffffffffffffffffffff1681526020016005820160149054906101000a900460ff16151515158152602001600682015481526020016007820154815250509050919050565b60008054905090565b60606002805480602002602001604051908101604052809291908181526020016000905b82821015610d0a57838290600052602060002090600802016040518061012001604052908160008201548152602001600182018054610a3e90611738565b80601f0160208091040260200160405190810160405280929190818152602001828054610a6a90611738565b8015610ab75780601f10610a8c57610100808354040283529160200191610ab7565b820191906000526020600020905b815481529060010190602001808311610a9a57829003601f168201915b50505050508152602001600282018054610ad090611738565b80601f0160208091040260200160405190810160405280929190818152602001828054610afc90611738565b8015610b495780601f10610b1e57610100808354040283529160200191610b49565b820191906000526020600020905b815481529060010190602001808311610b2c57829003601f168201915b50505050508152602001600382018054610b6290611738565b80601f0160208091040260200160405190810160405280929190818152602001828054610b8e90611738565b8015610bdb5780601f10610bb057610100808354040283529160200191610bdb565b820191906000526020600020905b815481529060010190602001808311610bbe57829003601f168201915b50505050508152602001600482018054610bf490611738565b80601f0160208091040260200160405190810160405280929190818152602001828054610c2090611738565b8015610c6d5780601f10610c4257610100808354040283529160200191610c6d565b820191906000526020600020905b815481529060010190602001808311610c5057829003601f168201915b505050505081526020016005820160009054906101000a900473ffffffffffffffffffffffffffffffffffffffff1673ffffffffffffffffffffffffffffffffffffffff1673ffffffffffffffffffffffffffffffffffffffff1681526020016005820160149054906101000a900460ff161515151581526020016006820154815260200160078201548152505081526020019060010190610a00565b50505050905090565b610da981604051602401610d279190611406565b6040516020818303038152906040527f41304fac000000000000000000000000000000000000000000000000000000007bffffffffffffffffffffffffffffffffffffffffffffffffffffffff19166020820180517bffffffffffffffffffffffffffffffffffffffffffffffffffffffff8381831617835250505050610dd0565b50565b6001816000016000828254019250508190555050565b600081600001549050919050565b60008151905060006a636f6e736f6c652e6c6f679050602083016000808483855afa5050505050565b828054610e0590611738565b90600052602060002090601f016020900481019282610e275760008555610e6e565b82601f10610e4057805160ff1916838001178555610e6e565b82800160010185558215610e6e579182015b82811115610e6d578251825591602001919060010190610e52565b5b509050610e7b9190610ee3565b5090565b6040518061012001604052806000815260200160608152602001606081526020016060815260200160608152602001600073ffffffffffffffffffffffffffffffffffffffff16815260200160001515815260200160008152602001600081525090565b5b80821115610efc576000816000905550600101610ee4565b5090565b6000610f13610f0e84611533565b61150e565b905082815260208101848484011115610f2b57600080fd5b610f368482856116f6565b509392505050565b600082601f830112610f4f57600080fd5b8135610f5f848260208601610f00565b91505092915050565b600081359050610f7781611882565b92915050565b60008060008060808587031215610f9357600080fd5b600085013567ffffffffffffffff811115610fad57600080fd5b610fb987828801610f3e565b945050602085013567ffffffffffffffff811115610fd657600080fd5b610fe287828801610f3e565b935050604085013567ffffffffffffffff811115610fff57600080fd5b61100b87828801610f3e565b925050606085013567ffffffffffffffff81111561102857600080fd5b61103487828801610f3e565b91505092959194509250565b60006020828403121561105257600080fd5b600061106084828501610f68565b91505092915050565b6000806040838503121561107c57600080fd5b600061108a85828601610f68565b925050602083013567ffffffffffffffff8111156110a757600080fd5b6110b385828601610f3e565b9150509250929050565b60006110c98383611212565b905092915050565b6110da81611692565b82525050565b6110e981611692565b82525050565b60006110fa82611574565b6111048185611597565b93508360208202850161111685611564565b8060005b85811015611152578484038952815161113385826110bd565b945061113e8361158a565b925060208a0199505060018101905061111a565b50829750879550505050505092915050565b61116d816116a4565b82525050565b61117c816116a4565b82525050565b61118b816116b0565b82525050565b61119a816116e4565b82525050565b60006111ab8261157f565b6111b581856115a8565b93506111c5818560208601611705565b6111ce81611871565b840191505092915050565b60006111e48261157f565b6111ee81856115b9565b93506111fe818560208601611705565b61120781611871565b840191505092915050565b60006101208301600083015161122b60008601826113c6565b506020830151848203602086015261124382826111a0565b9150506040830151848203604086015261125d82826111a0565b9150506060830151848203606086015261127782826111a0565b9150506080830151848203608086015261129182826111a0565b91505060a08301516112a660a08601826110d1565b5060c08301516112b960c0860182611164565b5060e08301516112cc60e0860182611182565b506101008301516112e1610100860182611182565b508091505092915050565b60006101208301600083015161130560008601826113c6565b506020830151848203602086015261131d82826111a0565b9150506040830151848203604086015261133782826111a0565b9150506060830151848203606086015261135182826111a0565b9150506080830151848203608086015261136b82826111a0565b91505060a083015161138060a08601826110d1565b5060c083015161139360c0860182611164565b5060e08301516113a660e0860182611182565b506101008301516113bb610100860182611182565b508091505092915050565b6113cf816116da565b82525050565b6113de816116da565b82525050565b600060208201905081810360008301526113fe81846110ef565b905092915050565b6000602082019050818103600083015261142081846111d9565b905092915050565b6000602082019050818103600083015261144281846112ec565b905092915050565b600060208201905061145f60008301846113d5565b92915050565b60006101208201905061147b600083018c6113d5565b818103602083015261148d818b6111d9565b905081810360408301526114a1818a6111d9565b905081810360608301526114b581896111d9565b905081810360808301526114c981886111d9565b90506114d860a08301876110e0565b6114e560c0830186611173565b6114f260e0830185611191565b611500610100830184611191565b9a9950505050505050505050565b6000611518611529565b9050611524828261176a565b919050565b6000604051905090565b600067ffffffffffffffff82111561154e5761154d611842565b5b61155782611871565b9050602081019050919050565b6000819050602082019050919050565b600081519050919050565b600081519050919050565b6000602082019050919050565b600082825260208201905092915050565b600082825260208201905092915050565b600082825260208201905092915050565b60006115d5826116b0565b91506115e0836116b0565b9250817f7fffffffffffffffffffffffffffffffffffffffffffffffffffffffffffffff0383136000831215161561161b5761161a6117e4565b5b817f8000000000000000000000000000000000000000000000000000000000000000038312600083121615611653576116526117e4565b5b828201905092915050565b6000611669826116da565b9150611674836116da565b925082821015611687576116866117e4565b5b828203905092915050565b600061169d826116ba565b9050919050565b60008115159050919050565b6000819050919050565b600073ffffffffffffffffffffffffffffffffffffffff82169050919050565b6000819050919050565b60006116ef826116b0565b9050919050565b82818337600083830152505050565b60005b83811015611723578082015181840152602081019050611708565b83811115611732576000848401525b50505050565b6000600282049050600182168061175057607f821691505b6020821081141561176457611763611813565b5b50919050565b61177382611871565b810181811067ffffffffffffffff8211171561179257611791611842565b5b80604052505050565b60006117a6826116da565b91507fffffffffffffffffffffffffffffffffffffffffffffffffffffffffffffffff8214156117d9576117d86117e4565b5b600182019050919050565b7f4e487b7100000000000000000000000000000000000000000000000000000000600052601160045260246000fd5b7f4e487b7100000000000000000000000000000000000000000000000000000000600052602260045260246000fd5b7f4e487b7100000000000000000000000000000000000000000000000000000000600052604160045260246000fd5b6000601f19601f8301169050919050565b61188b816116da565b811461189657600080fd5b5056fea26469706673582212202fd88a1709fcddd664472b9ae141b937721a971d9b9fa815bbcd36a84f3f3a6564736f6c63430008040033",
  "linkReferences": {},
  "deployedLinkReferences": {}
}